:100000000C94DA000C94F7000C94F7000C94F700B1
:100010000C94F7000C94F7000C94F7000C94F70084
:100020000C94F7000C94A2070C94F7000C94F700C2
:100030000C94F7000C94F7000C94F7000C94F70064
:100040000C94F7000C94F7000C94F7000C94F70054
:100050000C94F700084AD73B3BCE016E84BCBFFD31
:10006000C12F3D6C74319ABD56833DDA3D00C77F88
:1000700011BED9E4BB4C3E916BAAAABE0000008021
:100080003F04B6E704B6D304B6C704B6C30290076C
:1000900003AC8103AC80029000000000000000006F
:1000A0000000080000000800000008000000080030
:1000B00000000000000008000000407A10F35A0021
:1000C000A0724E18090010A5D4E80000E876481781
:1000D0000000E40B54020000CA9A3B000000E1F566
:1000E00005000080969800000040420F000000A02C
:1000F0008601000000102700000000E80300000057
:10010000006400000000000A000000000001000080
:100110000000002C76D888DC674F0823DFC1DFAEF3
:1001200059E1B1B796E5E3E453C63AE651997696BC
:10013000E8E6C28426EB898C9B62ED407C6FFCEF85
:10014000BC9C9F40F2BAA56FA5F490055A2AF75CB3
:10015000936B6CF9676DC11BFCE0E40D47FEF52065
:10016000E6B500D0ED902E0300943577050080842D
:100170001E080000204E0A000000C80C3333333341
:100180000F986E12831141EF8D2114893BE65516AD
:10019000CFFEE6DB18D1844B381BF77C1D901DA4E5
:1001A000BBE424203284725E228100C9F124ECA1D8
:1001B000E53D270011241FBECFE5D8E0DEBFCDBF4F
:1001C00011E0A0E6B0E0E4E1F8E202C005900D9293
:1001D000AC34B107D9F712E0ACE4B1E001C01D9234
:1001E000A830B107E1F70E94F9000C9408140C94B0
:1001F00000001F930E941A020E94B7070E941E0867
:100200008FEF99E6A8E181509040A040E1F700C04F
:1002100000000E94620B0E94C20710E08091000261
:100220008130E1F7109200020E9403080E941F0231
:10023000183C29F40E94070C0E947E0810E01F5F02
:10024000EDCF9F7790BD89B988E18AB98EE880BDEE
:1002500008958BB1807208955D9BFECF8CB908958F
:100260005F9BFECF8CB10895DF93CF9300D000D079
:1002700000D0CDB7DEB7FA01262F2F7029839B015E
:10028000AC01B4E05695479537952795BA95D1F7C7
:100290002F702A83272F2F702B839B01AC01ACE09A
:1002A0005695479537952795AA95D1F72F702C83AA
:1002B000282F2F702D8324E1969587957795679544
:1002C0002A95D1F76F706E83CE010196BE016A5FE9
:1002D0007F4F9E01295F3F4FDC015D91CD01DB0126
:1002E0004C915A3010F4405D01C0495C408361502C
:1002F000704031968217930779F726960FB6F894D7
:10030000DEBF0FBECDBFCF91DF9108958F929F9238
:10031000AF92BF92CF92DF92EF92FF920F931F9313
:10032000DF93CF9300D000D000D0CDB7DEB75B0114
:100330006C01942E852E8AE0E82EF12C012D112DD2
:10034000C601B501A80197010E94B40E6983CA01D4
:10035000B901A80197010E94B40E6A83C601B501D4
:1003600024E630E040E050E00E94B40ECA01B9013A
:10037000A80197010E94B40E6B83C601B50128EE57
:1003800033E040E050E00E94B40ECA01B901A80178
:1003900097010E94B40E6C83C601B50120E137E2DB
:1003A00040E050E00E94B40ECA01B901A8019701D3
:1003B0000E94B40E6D83C601B50120EA36E841E023
:1003C00050E00E94B40ECA01B901A80197010E9431
:1003D000B40E6E83FE0137969401832F922FDC01B9
:1003E000CE0101962291205D2D93E817F907D1F7F0
:1003F00026960FB6F894DEBF0FBECDBFCF91DF912A
:100400001F910F91FF90EF90DF90CF90BF90AF9032
:100410009F908F9008950F931F938A0143E050E0BF
:1004200025E030E00E94D60E1F910F9108958CB107
:100430008CB9089583E390E00E9421010895809192
:100440004C01882321F10E942901882301F1E091C8
:100450006200F091630080810E942C0140914C0168
:100460004423A9F080916200909163009C012D5477
:1004700031402539310514F4019602C08DE491E034
:100480009093630080936200415040934C01089523
:10049000282F392FF90140E001C04F5F219122231D
:1004A00011F04E3FD1F750E060914C0125E930E06A
:1004B000261B31094217530754F5E0916000F09173
:1004C0006100DC0112C0808320914C01253968F461
:1004D000CF018D5491408539910514F4319602C0B5
:1004E000EDE4F1E02F5F20934C0180914C018539C0
:1004F00030F0F0936100E093600080E008958D910A
:10050000882309F7F0936100E0936000089581E08B
:100510000895EF92FF92CF93DF93E82EE7017E01DB
:10052000F92EE70102C00E942C0189918823D9F796
:10053000DF91CF91FF90EF9008951F93DF93CF93BA
:100540000F92CDB7DEB7182FC49882E069830E945E
:100550009D07812F0E949D076981862F0E949D071C
:10056000C49A0F90CF91DF911F9108951F93182F78
:10057000C49883E00E949D07812F0E949D078FEF02
:100580000E949D07C49A1F9108951F93DF93CF93F4
:1005900000D0CDB7DEB7182FC49885E04A836983B1
:1005A0000E949D07812F0E949D076981862F0E94CE
:1005B0009D074A81842F0E949D07C49A0F900F9037
:1005C000CF91DF911F910895C4980E949D078FEFEE
:1005D0000E949D07C49A0895EF92FF920F931F9374
:1005E000DF93CF930F92CDB7DEB7182F883008F086
:1005F00059C0C49ABC9AC798C598C698BF9ABD9A64
:10060000BE980E949807C49880EC0E949D078FE9CD
:100610009FE00197F1F700C00000C49AEFE3FCE906
:100620003197F1F700C00000C49882E00E949D0756
:1006300088E20E949D0783E0189F700111248701C2
:100640000F571F4F90E0F801849199830E949D07F6
:1006500099819F5F0F5F1F4F9330A9F783E00E943E
:100660009D07C49A8DE060E00E949D028A98929A4C
:100670008CE060E00E949D0289E20E94B602182F81
:10068000C7018E579F4FFC0104918FE060E00E94EC
:100690009D02101739F48EE00E94B602807ED9F7D1
:1006A00081E001C080E00F90CF91DF911F910F9109
:1006B000FF90EF90089581E0829980E0089580EAAC
:1006C0000E94E402982F947581E0943509F480E04B
:1006D0000895DF92EF92FF920F931F93CF93DF93D2
:1006E000EC0180EB0E94E402D82E082F10E080E499
:1006F000E82EF12CE022F122D6FC04C0D7FE36C051
:1007000084E901C080E9C4980E949D07CE010E943F
:10071000A1058170880F9C819D7F982B9C838FEF12
:100720000E949D0721E003FF20E09C819E7F922B89
:100730009C83182F1F701D83269600E005C08FEF45
:100740000E949D0789930F5F0117C8F3C49AE114B3
:10075000F10419F08CE261E002C08CE262E040E05A
:100760000E94C5028D2D87708F5F01C080E0DF91F0
:10077000CF911F910F91FF90EF90DF900895FF921E
:100780000F931F93CF93DF93EC0180EA0E94E40262
:1007900082FF06C084FF06C086FD35C014E003C09A
:1007A00010E001C012E0C498812F80640E949D0770
:1007B0006C8166956170CE010E9467050D810F7096
:1007C0008C8180FF05C0802F80640E949D070CC033
:1007D000802F0E949D072696FF2404C089910E94C5
:1007E0009D07F394F016D0F3C49A85E08A95F1F74B
:1007F0000000C498112309F411E0812F80680E9441
:100800009D07C49A01C010E0812FDF91CF911F9105
:100810000F91FF900895EF92FF920F931F93CF9344
:10082000DF93F82EEB018EE00E94B602E82E8F2DAA
:10083000863008F084C08FE060EE40E80E94C50278
:1008400000E810E08EE00E94B602282F30E0207E03
:10085000307020173107B1F7FF2091F488858C7034
:100860008C3019F480E660E404C0883031F480E60E
:1008700060E20E949D0200E217C080E660E0F9CFCE
:100880008F2D823049F588858C708C3019F480E783
:1008900060E407C0883019F480E760E202C080E7B6
:1008A00060E00E949D0204E2C49882E00E949D07DD
:1008B000802F0E949D079E012C5F3F4F88858C7082
:1008C00061E0883009F460E0C9010E946705C49ABC
:1008D00085E08A95F1F700008F2D833020F08DEFB1
:1008E000F80E00E101C000E0C49882E00E949D077C
:1008F0008F2D880F880F802B0E949D0788858C7014
:1009000061E0883009F460E0CE010E946705C49A76
:1009100085E08A95F1F700008FE060EE4E2D0E9491
:10092000C502CE2DD0E08EE00E94B60290E08C276A
:100930009D27807E90700097B1F781E001C080E034
:10094000DF91CF911F910F91FF90EF900895EF925B
:10095000FF920F931F93CF93DF93F82EEB018EE05E
:100960000E94B602E82E8F2D863008F06DC08FE011
:1009700060EE40E80E94C50200E810E08EE00E94B0
:10098000B602282F30E0207E307020173107B1F7F3
:100990008F2D823028F480E60E94B60200E204C067
:1009A00080E70E94B60204E2807661F48885807F49
:1009B00088871C821D821E821F82188219821A82D9
:1009C0001B8240C0829586958770809580FD83E06C
:1009D0008370880F880F9885937F982B9887C49889
:1009E00083E00E949D07802F0E949D07CE01049600
:1009F0000E94A105C49A8F2D833020F40F2D000F83
:100A0000000F04C00F2D000F000F0C5FC49883E08F
:100A10000E949D07802F0E949D07CE010E94A10584
:100A2000C49A8FE060EE4E2D0E94C502CE2DD0E01C
:100A30008EE00E94B60290E08C279D27807E907009
:100A40000097B1F781E001C080E0DF91CF911F9165
:100A50000F91FF90EF9008950F931F93CF93DF9323
:100A6000EC018FE060EE40E80E94C5028EE00E943B
:100A7000B602807E8038D1F780E664E00E949D0255
:100A800080E760E00E949D0210E0C49882E00E942E
:100A90009D07812F0E949D0700E0103211F408305D
:100AA00040F4FE01219684910E949D070F5F0C3057
:100AB000A1F7C49A105F103341F78FE060EE40E079
:100AC0000E94C502DF91CF911F910F910895CF939E
:100AD000DF93EC016623D9F08A819B8135E09695FE
:100AE00087953A95E1F78FB99A81892F880F880FFA
:100AF000880F807E88609370892B779BFECF9FB193
:100B00000E949D0789810E949D07888115C0888168
:100B1000998123E0969587952A95E1F78FB9888189
:100B20008295880F807E779BFECF9FB10E949D07A4
:100B300080E00E949D0780E00E949D07DF91CF9199
:100B400008951F93CF93DF93EC018FEF0E949D07D1
:100B5000182F8FEF0E949D07212F30E083FF1FC0C9
:100B60009FEF9FB945E0220F331F4A95E1F73B8382
:100B70002A83779BFECF9FB199839FEF9FB9982FD0
:100B800093702A81922B8695869586958C71982BE9
:100B90009A83779BFECF8FB1888381E01AC09FEF45
:100BA0009FB91B821A8293E0220F331F9A95E1F7B7
:100BB00039832883779BFECF9FB19FEF9FB98295A2
:100BC000869587709881982B9883779BFECF8FB1FD
:100BD00080E0DF91CF911F910895DF93CF930F9223
:100BE000CDB7DEB78CE10E94B602982F8DE19983D4
:100BF0000E94B60299810F90CF91DF910895CF9214
:100C0000DF92EF92FF920F931F93CF93DF938EE0CB
:100C10000E94B602D82E8FE060EE40E80E94C50226
:100C200000E810E08EE00E94B60290E0807E9070B6
:100C300080179107B9F700D084E690E0ADB7BEB752
:100C400012969C938E9311970E94F80E0F900F901E
:100C5000C0E0D0E006E710E083E8E82E80E0F82E60
:100C60008C2F0E94B60200D000D000D0EDB7FEB7A6
:100C70003196ADB7BEB712961C930E931197D383DE
:100C8000C283848315820E94F80EEDB7FEB73696B4
:100C90000FB6F894FEBF0FBEEDBF8C2F805F0E9491
:100CA000B60200D000D000D0EDB7FEB73196ADB798
:100CB000BEB712961C930E9311979E01205F3F4F73
:100CC00033832283848315820E94F80EEDB7FEB72A
:100CD00036960FB6F894FEBF0FBEEDBF8C2F805E28
:100CE0000E94B60200D000D000D0EDB7FEB731961A
:100CF000ADB7BEB712961C930E9311979E01205E5E
:100D00003F4F33832283848315820E94F80EEDB710
:100D1000FEB736960FB6F894FEBF0FBEEDBF8C2F10
:100D2000805D0E94B60200D000D000D0EDB7FEB7C3
:100D30003196ADB7BEB712961C930E9311979E01D4
:100D4000205D3F4F33832283848315820E94F80EF7
:100D5000EDB7FEB736960FB6F894FEBF0FBEEDBFE7
:100D60008C2F805C0E94B60200D000D000D0EDB77E
:100D7000FEB73196ADB7BEB712961C930E9311977E
:100D80009E01205C3F4F33832283848315820E941F
:100D9000F80EEDB7FEB736960FB6F894FEBF0FBE4D
:100DA000EDBF8C2F805B0E94B60200D000D000D037
:100DB000EDB7FEB73196ADB7BEB712961C930E9342
:100DC00011979E01205B3F4F3383228384831582DA
:100DD0000E94F80EEDB7FEB736960FB6F894FEBF38
:100DE0000FBEEDBF8C2F805A0E94B60200D000D0FB
:100DF00000D0EDB7FEB73196ADB7BEB712961C93D3
:100E00000E9311979E01205A3F4F33832283848390
:100E100015820E94F80EEDB7FEB736960FB6F8941D
:100E2000FEBF0FBEEDBF8C2F80590E94B60200D0CE
:100E300000D000D0EDB7FEB73196ADB7BEB7129671
:100E4000FC92EE9211979E0120593F4F33832283EB
:100E5000848315820E94F80E2196EDB7FEB7369670
:100E60000FB6F894FEBF0FBEEDBFC031D10509F03B
:100E7000F7CE8FE060EE4D2D0E94C502CD2DD0E063
:100E80008EE00E94B60290E08C279D27807E9070B5
:100E90000097B1F7DF91CF911F910F91FF90EF90E5
:100EA000DF90CF9008951F93CF93DF93882331F085
:100EB000813031F0833031F010E005C010E603C01E
:100EC00010E401C010E28FE060EE412F0E94C502E5
:100ED000C12FD0E08EE00E94B60290E0807E90703C
:100EE0008C179D07B9F7DF91CF911F9108958CE082
:100EF00060E240E20E94C50283E00E9453078BE259
:100F000060E440E40E94C50208958BE260E440E0A2
:100F10000E94C5028CE260E440E00E94C5028CE0C1
:100F200060E240E00E94C50282E00E9453070895FB
:100F300081E58DB981E08EB908958FB9779BFECF99
:100F40008FB108951F920F920FB60F9211248F93B5
:100F50009F938EE19BEF9DBD8CBD81E0809300024D
:100F60009F918F910F900FBE0F901F9018958EE15B
:100F70009BEF9DBD8CBD1FBC83E08EBD84E089BF0F
:100F8000789408958D9A8E9A8F9A8091010281604B
:100F90008093010208958091E4018832A1F4909138
:100FA0000102892F8695869580958170880F880F1C
:100FB0009B7F982B909301021092E4018091E301B2
:100FC0008F5F8093E3018091E3018A3028F4809160
:100FD000E4018F5F8093E40108958091010281FF15
:100FE00002C0959A01C095988091010280FF02C0CD
:100FF000979A01C097988091010282FF02C0969A49
:101000000895969808950E94CB070E94ED070895D1
:10101000FC0190819170809101028E7F892B8093D9
:101020000102908192708D7F892B809301029081C3
:1010300094708B7F892B80930102089584E00E9435
:10104000EC02882339F089E990E00E942C058EE8B3
:1010500090E006C087EA90E00E94480285EC90E0AC
:101060000E94480208950F931F93DF93CF93CDB74B
:10107000DEB72E970FB6F894DEBF0FBECDBF8C0142
:10108000DE011696E5EEF0E089E001900D928150C8
:10109000E1F71E86CE0102960E948A0B87E594E353
:1010A000A2E1B0E0F80180839183A283B3838481BD
:1010B0008E7F8260848384E085836A817B818C81DA
:1010C0009D81668377838E010A5F1F4FA8010E946E
:1010D0008601CE0101960E94980B8981813019F416
:1010E000C8010E9448022E960FB6F894DEBF0FBECC
:1010F000CDBFCF91DF911F910F9108950F931F9353
:10110000DF93CF93CDB7DEB72E970FB6F894DEBF3F
:101110000FBECDBF8E010F5F1F4FC8010E94330865
:10112000C8010E94BF038EEE90E00E9448022E96F6
:101130000FB6F894DEBF0FBECDBFCF91DF911F91E8
:101140000F91089511B880EC80B9089594EA96BF84
:1011500020E030E0A90104C02F5F3F4F4F4F5F4FA9
:1011600006B607FC08C0203898E3390791E0490724
:1011700090E0590789F706B607FE28C091B1987F1D
:10118000983011F0903101F583B984E886BF80E092
:1011900090E0DC0103C00196A11DB11D06B607FC5D
:1011A00008C0803828E3920721E0A20720E0B207B8
:1011B00091F706B607FE0AC091B1987F983141F0C9
:1011C00081E0903431F402C081E0089580E0089518
:1011D00080E0089520E030E0A901E4EA74E864E9E1
:1011E00003C020E030E0A901E6BF04C02F5F3F4FFD
:1011F0004F4F5F4F06B607FC08C0203898E3390709
:1012000091E0490790E0590788F306B607FE3DC014
:1012100091B1987F983011F0903119F783B976BF6A
:1012200020E030E0A90104C02F5F3F4F4F4F5F4FD8
:1012300006B607FC08C0203898E3390791E0490753
:1012400090E0590789F706B607FE21C091B1987F53
:10125000903211F09835E9F466BF20E030E0A90142
:1012600004C02F5F3F4F4F4F5F4F06B604FE08C0CC
:10127000203898E3390791E0490790E0590789F74A
:1012800006B604FEB1CF82E0089580E0089581E0C3
:10129000089583E008950E94A608089584E986BF12
:1012A00080E090E0DC0103C00196A11DB11D06B6EF
:1012B00004FE08C0803828E3920721E0A20720E05E
:1012C000B20791F781E006B604FC80E0089583B987
:1012D00084E886BF80E090E0DC0103C00196A11D98
:1012E000B11D06B607FC08C0803828E3920721E04C
:1012F000A20720E0B20791F706B607FE07C091B13A
:10130000987F81E0983219F480E0089580E0089594
:1013100084EC86BF06B607FEFDCF83B1089584E84E
:1013200086BF06B607FEFDCF83B108950E94A208CE
:101330008FE891E00197F1F700C000008FE195E898
:10134000ABE6BFE38093E5019093E601A093E7014C
:10135000B093E8018CE30E94EA088330A9F481E0AD
:101360000E94670980E20E9467090E944E098CE38F
:101370000E94EA0882E00E94670980E00E946709F3
:101380000E944E0980E0089582E008959F92AF92F6
:10139000BF92CF92DF92EF92FF920F931F93DF9352
:1013A000CF9300D000D000D0CDB7DEB75C018B0169
:1013B0006A017E010894E11CF11C86E0F70111929C
:1013C0008A95E9F78CE30E94EA088330F1F40E94E1
:1013D00067090E944E098DE30E94EA089924F92DBD
:1013E000F53021F40E948F098E8304C00E94880981
:1013F000F701808393940894E11CF11CF92DF630D9
:1014000071F70E944E0980E001C082E0598140E0FE
:101410002A8130E0242B352BF501318320835B8139
:1014200040E02C8130E0242B352BF60131832083E2
:101430005D8140E02E8130E0242B352BF801318393
:10144000208326960FB6F894DEBF0FBECDBFCF9196
:10145000DF911F910F91FF90EF90DF90CF90BF90A1
:10146000AF909F9008952F923F924F925F926F920C
:101470007F928F929F92AF92BF92CF92DF92EF9224
:10148000FF920F931F93DF93CF93CDB7DEB72D97C6
:101490000FB6F894DEBF0FBECDBF998788877B87D4
:1014A0006A875D874C871A8219821C821B821E8282
:1014B0001D82CE010196BE016D5F7F4FAE014B5F75
:1014C0005F4F0E94C6098F8369817A81882777FDE3
:1014D0008095982F0E94700D26E636E647EC52E480
:1014E0000E94120CD62EC72EB82EA92E6B817C819D
:1014F000882777FD8095982F0E94700D20E030E0BE
:101500004AE153E40E94120C962E872E782E692E03
:101510006D817E81882777FD8095982F0E94700DC0
:101520002AE939E945EB51E40E94120C562E472E68
:10153000382E292EA6019501652F742F832F922F07
:1015400023E637EB43E75FE30E944C0E7B018C01FF
:10155000A4019301652F742F832F922F2AEB31E67C
:1015600040E05BE30E944C0E9B01AC01C801B70157
:101570000E94120C7B018C01A2019101652F742F36
:10158000832F922F22E132ED44E65CE30E944C0E61
:101590009B01AC01C801B7010E94120CE885F985D6
:1015A0006083718382839383A6019501652F742FD5
:1015B000832F922F2AEB31E640E05BE30E944C0E32
:1015C0007B018C01A4019301652F742F832F922F2F
:1015D00021EC30E042E65FE30E944C0E9B01AC013F
:1015E000C801B7010E94120C7B018C01A20191017C
:1015F000652F742F832F922F2EEC3DE149EF5BE393
:101600000E944C0E9B01AC01C801B7010E94120C54
:10161000EA85FB856083718382839383A6019501AC
:10162000652F742F832F922F22E132ED44E65CE385
:101630000E944C0E7B018C01A4019301652F742F35
:10164000832F922F2EEC3DE149EF5BE30E944C0E7D
:101650009B01AC01C801B7010E94120C7B018C01F7
:10166000A2019101652F742F832F922F2EE330ED6D
:101670004EE75FE30E944C0E9B01AC01C801B7012D
:101680000E94120CEC85FD856083718382839383B5
:101690008F812D960FB6F894DEBF0FBECDBFCF91D0
:1016A000DF911F910F91FF90EF90DF90CF90BF904F
:1016B000AF909F908F907F906F905F904F903F90F2
:1016C0002F9008950E949609823039F41092FB0100
:1016D00082E091E00E944802089581E08093FB013E
:1016E00008950E949609823019F41092FB01089522
:1016F00081E08093FB010895FC0180819181A281AA
:10170000B3818093FC019093FD01A093FE01B093FF
:10171000FF0108952091FC013091FD014091FE01EF
:101720005091FF01FC01208331834283538308954C
:101730002091FB01FC0120830895EF92FF920F930B
:101740001F9389EE91E06BEE71E04DEE51E00E9447
:10175000C6098FEE91E063EF71E047EF51E00E9420
:10176000330A823031F41092FB018EE291E00E9444
:1017700048026091EB017091EC01882777FD80951C
:10178000982F0E94700D7B018C016091E90170918E
:10179000EA01882777FD8095982F0E94700D9B01A4
:1017A000AC01C801B7010E94850C21EE3EE245E67E
:1017B00052E40E944C0EF62E072F182FE92E20E03F
:1017C00030E0A9010E94D80C87FF0EC06F2D702F4A
:1017D000812F9E2D20E030E044EB53E40E94120C58
:1017E000F62E072F182FE92E6F2D702F812F9E2D8B
:1017F0000E94420D6093FC017093FD018093FE01F5
:101800009093FF011F910F91FF90EF9008958091A9
:10181000FB01813019F40E949D0B08950E94710B09
:1018200008955058BB27AA270ED0F5C1E6D130F055
:10183000EBD120F031F49F3F11F41EF4B6C10EF449
:10184000E095E7FBACC1E92FF7D180F3BA17620747
:1018500073078407950718F071F49EF50FC20EF414
:10186000E0950B2EBA2FA02D0B01B90190010C01B0
:10187000CA01A0011124FF27591B99F0593F50F4C8
:10188000503E68F11A16F040A22F232F342F442720
:10189000585FF3CF469537952795A795F040539518
:1018A000C9F77EF41F16BA0B620B730B840BBAF0E8
:1018B0009150A1F0FF0FBB1F661F771F881FC2F753
:1018C0000EC0BA0F621F731F841F48F48795779567
:1018D0006795B795F7959E3F08F0B3CF9395880F1E
:1018E00008F09927EE0F97958795089586D158F0BF
:1018F00080E891E009F49EEF87D128F040E851E0BC
:1019000059F45EEF09C051C1B9C1E92FE07894D113
:1019100068F3092E052AC1F3261737074807590728
:1019200038F00E2E07F8E02569F0E025E0640AC0E3
:10193000EF6307F8009407FADB01B9019D01DC01B0
:10194000CA01AD01EF9345D066D10AD05F9155230E
:1019500031F02BED3FE049E450FD49EC63CF0895B1
:10196000DF93DD27B92FBF7740E85FE31616170630
:1019700048075B0710F4D92F88D19F938F937F93EB
:101980006F93EDD1E4E5F0E013D145D12F913F9174
:101990004F915F918DD1DD2349F09058A2EA2AED55
:1019A0003FE049EC5FE3D0785D274DDFDF9133C145
:1019B000D2D008F481E0089527D140F01ED130F054
:1019C00021F45F3F19F0EBC0511159C1EEC034D181
:1019D00098F39923C9F35523B1F3951B550BBB27F6
:1019E000AA2762177307840738F09F5F5F4F220FA3
:1019F000331F441FAA1FA9F333D00E2E3AF0E0E89C
:101A000030D091505040E695001CCAF729D0FE2FE7
:101A100027D0660F771F881FBB1F26173707480779
:101A2000AB07B0E809F0BB0B802DBF01FF2793582F
:101A30005F4F2AF09E3F510568F0B1C020C15F3F63
:101A4000ECF3983EDCF3869577956795B795F79517
:101A50009F5FC9F7880F911D9695879597F908950F
:101A6000E1E0660F771F881FBB1F621773078407AB
:101A7000BA0720F0621B730B840BBA0BEE1F88F7BA
:101A8000E0950895E1D088F09F5790F0B92F9927FD
:101A9000B751A0F0D1F0660F771F881F991F1AF079
:101AA000BA95C9F712C0B13081F0E8D0B1E008951D
:101AB000E5C0672F782F8827B85F39F0B93FCCF39E
:101AC000869577956795B395D9F73EF4909580956F
:101AD000709561957F4F8F4F9F4F0895E89409C08F
:101AE00097FB3EF490958095709561957F4F8F4F51
:101AF0009F4F9923A9F0F92F96E9BB279395F69567
:101B0000879577956795B795F111F8CFFAF4BB0FE4
:101B100011F460FF1BC06F5F7F4F8F4F9F4F16C048
:101B2000882311F096E911C0772321F09EE8872FD2
:101B3000762F05C0662371F096E8862F70E060E08E
:101B40002AF09A95660F771F881FDAF7880F969507
:101B5000879597F90895990F0008550FAA0BE0E8AB
:101B6000FEEF16161706E807F907C0F0121613065F
:101B7000E407F50798F0621B730B840B950B39F49F
:101B80000A2661F0232B242B252B21F408950A2605
:101B900009F4A140A6958FEF811D811D089597F945
:101BA0009F6780E870E060E008959FEF80EC089503
:101BB000DF93CF931F930F93FF92EF92DF927B01FE
:101BC0008C01689405C0DA2EEF0172D0FE01E89412
:101BD000A5912591359145915591AEF3EF0133DEF5
:101BE000FE019701A801DA9479F7DF90EF90FF905A
:101BF0000F911F91CF91DF91089500240A9416163A
:101C0000170618060906089500240A9412161306EA
:101C1000140605060895092E0394000C11F4882378
:101C200052F0BB0F40F4BF2B11F460FF04C06F5F94
:101C30007F4F8F4F9F4F089557FD9058440F551F6A
:101C400059F05F3F71F04795880F97FB991F61F03E
:101C50009F3F79F087950895121613061406551FB5
:101C6000F2CF4695F1DF08C0161617061806991F21
:101C7000F1CF86957105610508940895E894BB2716
:101C800066277727CB0197F908959B01AC0160E0A7
:101C900070E080E89FE366C00BD0BDCFAEDF28F0D8
:101CA000B3DF18F0952309F07ACF7FCF1124E7CF67
:101CB000C3DFA0F3959FD1F3950F50E0551F629FAE
:101CC000F001729FBB27F00DB11D639FAA27F00D95
:101CD000B11DAA1F649F6627B00DA11D661F829FBC
:101CE0002227B00DA11D621F739FB00DA11D621FA1
:101CF000839FA00D611D221F749F3327A00D611DBE
:101D0000231F849F600D211D822F762F6A2F11249F
:101D10009F5750408AF0E1F088234AF0EE0FFF1FF2
:101D2000BB1F661F771F881F91505040A9F79E3F29
:101D3000510570F034CFA3CF5F3FECF3983EDCF356
:101D4000869577956795B795F795E7959F5FC1F766
:101D5000FE2B880F911D9695879597F908959B0105
:101D6000AC019ACF34DE57CFA1E21A2EAA1BBB1BBF
:101D7000FD010DC0AA1FBB1FEE1FFF1FA217B30757
:101D8000E407F50720F0A21BB30BE40BF50B661F6D
:101D9000771F881F991F1A9469F760957095809531
:101DA00090959B01AC01BD01CF010895EF92FF9288
:101DB0000F931F93322FF02E47FF02C0A4E101C002
:101DC000A4E0E42FFF27E7FDF095F7FF03C0F095AF
:101DD000E195FF4F4F2D512F2E2F032FEA2E0E94FA
:101DE00002118F2D912F1F910F91FF90EF90089569
:101DF000A0E0B0E0EEEFFEE00C94E113FE013596BA
:101E0000619171918091040290910502DC01139619
:101E10002C911397286013962C93AF010E941B0FEF
:101E2000E0910402F09105022381277F238320960D
:101E3000E2E00C94FD13ACE0B0E0E1E2FFE00C94D2
:101E4000D1136C011B018A01FC0117821682838168
:101E500081FFD1C12E010894411C511CF6019381D0
:101E6000F10193FD859193FF81911F01882309F46E
:101E7000BEC1853239F493FD859193FF81911F0195
:101E8000853229F490E0B6010E944713E7CFEE2493
:101E9000FF2420E02032B0F48B3269F08C3228F439
:101EA000803251F0833271F40BC08D3239F08033BF
:101EB00049F421602CC02260246029C0286027C01A
:101EC000206125C027FD2CC0382F30533A3098F4BC
:101ED00026FF08C08E2D880FE82EEE0CEE0CE80EC3
:101EE000E30E15C08F2D880FF82EFF0CFF0CF80E97
:101EF000F30E20620CC08E3221F426FD78C12064DE
:101F000006C08C3611F4206802C0883649F4F1010D
:101F100093FD859193FF81911F01882309F0BACF2A
:101F2000982F9554933018F09052933028F40C5F0A
:101F30001F4FFFE3F9830DC0833631F0833771F013
:101F4000833509F060C022C0F801808189830E5F6B
:101F50001F4F420171E0A72EB12C16C062E0662E21
:101F6000712C600E711EF8018080918026FF03C0E5
:101F70006E2D70E002C06FEF7FEFC4012C870E94CE
:101F80003C135C0183012C852F7717C052E0652E2E
:101F9000712C600E711EF8018080918026FF03C0B5
:101FA0006E2D70E002C06FEF7FEFC4012C870E949E
:101FB00031135C012C852068830123FD20C008C0FB
:101FC00080E290E0B6012C870E944713FA942C859A
:101FD0008F2D90E0A816B90698F311C0F40127FDE3
:101FE000859127FF81914F0190E0B6012C870E94D7
:101FF00047132C85F110FA940894A108B108A11494
:10200000B10461F7F1C0843611F0893649F527FF34
:1020100008C0F80160817181828193810C5F1F4F3C
:1020200009C0F80160817181882777FD8095982F1C
:102030000E5F1F4F4FE6B42EB22297FF09C0909556
:102040008095709561957F4F8F4F9F4FF0E8BF2A25
:10205000A2012AE030E00E947313782E741845C064
:10206000853731F43FEEB32EB2222AE030E025C0AE
:1020700099EFB92EB2228F36C1F0803720F488351F
:1020800009F0B5C00DC0803721F0883709F0AFC026
:1020900002C020E1B22AB4FE0BC084E0B82A08C016
:1020A000B4FE09C0E6E0BE2A06C028E030E005C064
:1020B00020E130E002C020E132E0B7FE08C0F801C4
:1020C00060817181828193810C5F1F4F07C0F8018D
:1020D0006081718180E090E00E5F1F4FA2010E943D
:1020E0007313782E7418FFE7BF22B6FE0BC02EEFD5
:1020F000B2227E1438F4B4FE07C0B2FC05C08FEEE5
:10210000B82202C0A72C01C0AE2C8B2D90E0B4FEEB
:102110000DC0FE01E70DF11D2081203319F4E9EE19
:10212000BE2209C0A394B2FE06C004C08678907097
:10213000009709F0A3948B2C9924B3FC14C0B0FE33
:102140000FC0AF1428F4E72CEF0CEA18AF2C08C02E
:10215000E72C06C080E290E0B6010E944713A394EA
:10216000AF14C0F304C0AF1410F4FA1801C0FF2478
:1021700084FE0FC080E390E0B6010E94471382FE08
:102180001FC081FE03C088E590E010C088E790E0A2
:102190000DC0C40186789070009791F081FC02C058
:1021A00080E201C08BE2B7FC8DE290E0B6010E94B4
:1021B000471306C080E390E0B6010E944713EA94FB
:1021C0007E14C0F37A94F201E70DF11D808190E056
:1021D000B6010E9447137720A9F706C080E290E07D
:1021E000B6010E944713FA94FF20C1F737CEF601DB
:1021F0002681378102C02FEF3FEFC9012C96E2E123
:102200000C94ED13A9E0B0E0E8E0F1E10C94D913EF
:102210006A01F22E102F0C3318F4B02EB39402C0C2
:10222000ECE3BE2EAE014F5F5F4F27E00B2D0E9407
:102230005912298130E0A90149705070413051058F
:1022400031F0E1FC06C0E0FE06C0E0E205C0EDE2D0
:1022500003C0EBE201C0E0E023FF37C0EE2311F042
:1022600084E001C083E08F1518F4F81A8F2D01C0A7
:1022700080E0E4FC0BC0982FD60120E202C02D9331
:1022800091509923E1F7C80ED11C80E0EE2319F09C
:10229000D601ED936D01F6013196E2FE05C09EE494
:1022A000D6019C9321E404C09EE6D6019C9321E6CE
:1022B00011962C9391833296982FDF0120E202C071
:1022C0002D9391509923E1F73DC022FF41C0EE23A9
:1022D00011F084E001C083E08F1518F4F81A8F2DF7
:1022E00001C080E0E4FC0BC0982FD60120E202C0C0
:1022F0002D9391509923E1F7C80ED11C80E0EE2375
:1023000019F0D601ED936D01F6013196E2FE09C098
:1023100099E4D6019C939EE411969C93119796E4C0
:1023200007C099E6D6019C939EE611969C9396E68B
:1023300091833296982FDF0120E202C02D939150B5
:102340009923E1F7E80FF11D10822EEF3FEFACC0AB
:1023500041E050E0EE2311F440E050E01816190679
:1023600024F4BC016F5F7F4F02C061E070E0640F36
:10237000751F112329F0412F50E04F5F5F4F02C0BE
:1023800040E050E0460F571F6F2D70E0461757078B
:102390001CF40F2D041B01C000E0FF24A7014071B5
:1023A0005070E4FC0DC0E3FC0BC0602FD60170E25E
:1023B00002C07D9361506623E1F7C00ED11C00E09E
:1023C000EE2319F0D601ED936D014115510559F435
:1023D000402FF60150E302C0519341504423E1F7EE
:1023E000C00ED11C00E0B80EFA80A90140715070F7
:1023F00024FF04C0BF2DB13309F4BA941B142CF48C
:10240000AB2DA93018F0A8E001C0A1E09C0197FF16
:1024100002C020E030E0BC016F5F7F4F621B730B96
:10242000FE013196E60FF71F6EE2E62EBC016A1B35
:102430007109A12FB0E0AA24BB24AA1ABB0A1FEF7E
:102440002F3F310719F4D601ED926D0182179307E2
:102450002CF06217730714F4108101C010E32150AF
:10246000304031962A153B0524F0D6011D936D01AD
:10247000E6CF2817390749F4BF2DB63328F4B53312
:1024800021F44115510509F411E3F6011193802F50
:10249000DF0190E202C09D9381508823E1F7E00FB5
:1024A000F11D108220E030E0C9012996EAE00C9489
:1024B000F513283008F027E03327DA01990F311D92
:1024C00087FD916000966105710539F432602E5FD9
:1024D0003D9330E32A95E1F708959F3F30F080382F
:1024E0007105610509F03C5F3C5F3D93913008F058
:1024F0008068911DDF93CF931F930F93FF92EF920C
:10250000192F987F9695E92F96959695E90FFF27B5
:10251000ED5EFE4F99273327EE24FF24A701E70144
:1025200005900894079428F4360FE71EF81E491FFB
:10253000511D660F771F881F991F0694A1F70590FC
:10254000079428F4E70EF81E491F561FC11D770F88
:10255000881F991F661F0694A1F70590079428F419
:10256000F80E491F561FC71FD11D880F991F661FE0
:10257000771F0694A1F70590079420F4490F561F82
:10258000C71FD81F990F661F771F881F0694A9F7CA
:1025900084911095177041F0D695C795579547953A
:1025A000F794E7941A95C1F7E9EBF0E06894159079
:1025B000159135916591959105907FE27395E1189C
:1025C000F10A430B560BC90BD009C0F7E10CF11E01
:1025D000431F561FC91FD01D7EF4703311F48A9516
:1025E000E6CFE894015030F0080F0AF400270217F4
:1025F00008F4202F2395022F7A3328F079E37D9376
:102600002A95E9F710C07D932A9589F60694979547
:102610006795379517951794E118F10A430B560BF8
:10262000C90BD00998F023957E9173957A3308F001
:1026300070E37C932013B8F77E9170617D9330F046
:10264000839571E37D9370E32A95E1F71124EF9070
:10265000FF900F911F91CF91DF91992787FD909562
:102660000895FC010590615070400110D8F78095E5
:1026700090958E0F9F1F0895FC016150704001904E
:102680000110D8F7809590958E0F9F1F08950F9396
:102690001F93CF93DF938C01EB018B8181FF1BC0D4
:1026A00082FF0DC02E813F818C819D8128173907C3
:1026B00064F4E881F9810193F983E88306C0E88531
:1026C000F985802F0995009731F48E819F810196BD
:1026D0009F838E8302C00FEF1FEFC801DF91CF9160
:1026E0001F910F910895FA01AA27283051F1203146
:1026F00081F1E8946F936E7F6E5F7F4F8F4F9F4F96
:10270000AF4FB1E03ED0B4E03CD0670F781F891FD7
:102710009A1FA11D680F791F8A1F911DA11D6A0FA5
:10272000711D811D911DA11D20D009F468943F9158
:102730002AE0269F11243019305D3193DEF6CF0157
:102740000895462F4770405D4193B3E00FD0C9F71D
:10275000F6CF462F4F70405D4A3318F0495D31FD8A
:102760004052419302D0A9F7EACFB4E0A6959795DD
:10277000879577956795BA95C9F7009761057105B3
:1027800008959B01AC010A2E0694579547953795FD
:102790002795BA95C9F7620F731F841F951FA01D57
:1027A00008952F923F924F925F926F927F928F92F5
:1027B0009F92AF92BF92CF92DF92EF92FF920F93D0
:1027C0001F93CF93DF93CDB7DEB7CA1BDB0B0FB6DA
:1027D000F894DEBF0FBECDBF09942A883988488897
:1027E0005F846E847D848C849B84AA84B984C8842D
:1027F000DF80EE80FD800C811B81AA81B981CE0F24
:10280000D11D0FB6F894DEBF0FBECDBFED01089508
:04281000F894FFCF6A
:102814004D014D014D4350323531352052656764C9
:10282400756D703A0A002533693A202530327820D4
:102834002020002533693A20253032780A0043618C
:102844006E2046696C74657220696E697469616C86
:10285400697A65640D0A004D6F64756C652069734F
:10286400206E6F7420636F6E6E65637465642021DF
:1028740021200D0A0041626F7274696E67206170D5
:10288400706C69636174696F6E202E2E2E2E2E2E4D
:102894002E2E0D0A003030303030300D0A004D65D8
:1028A40073736167652053656E74202E2E2E200D80
:1028B4000A00484D43206973206E6F7420636F6E65
:1028C4006E65637465642C20706C65617365206348
:1028D4006F6E6E65637420212121200A0D00484D1E
:1028E400432077616974696E6720746F20636F6E2B
:0C28F4006E65637420212121200A0D0074
:00000001FF
